:10000000F85F0020110400006BFF01006BFF01008E
:100010006BFF01006BFF01006BFF01006BFF010034
:100020006BFF01006BFF01006BFF01006BFF010024
:100030006BFF01006BFF01006BFF01006BFF010014
:100040006BFF01006BFF01006BFF01006BFF010004
:10040000FFFFFFFFFFFFFFFFFFFFFFFFFEFFFFFFFD
:1004100062B623F0FFFCFEE70100010001000100CD
:1004200001000100010001000100010001000100C4
:1004300001000100010001000100010001000100B4
:1004400001000100010001000100010001000100A4
:100450000100010001000100010001000100010094
:10096000010001000100010001000200020002007C
:100970000200020002000200020002000200020067
:100980000200020002000200020002000200020057
:100990000200020002000200020002000200020047
:1009A0000200020002000200020002000200020037
:1009B0000200020002000200020002000200020027
:1009C0000200020002000200020002000200020017
:1009D0000200020002000200020002000200020007
:1009E00002000200020002000200020002000200F7
:1009F00002000200020002000200020002000200E7
:100A000002000200020002000200020002000200D6
:100A100002000200020002000200020002000200C6
:100A200002000200020002000200020002000200B6
:100A300002000200020002000200020002000200A6
:100A40000200020002000200020002000200020096
:100A50000200020002000200020002000200020086
:100A60000200020002000200020002000200020076
:100A70000200020002000200020002000200020066
:100A80000200020002000200020002000200020056
:100A90000200020002000200020002000200020046
:100AA0000200020002000200020002000200020036
:100AB0000200020002000200020002000100020027
:100AC0000200020002000200020002000200020016
:100AD0000200020002000200020002000200020006
:100AE00002000200020002000200020002000200F6
:100AF00002000200020002000200020002000200E6
:100EB0000300030003000300040004000400040016
:100EC0000400040004000400040004000400040002
:100ED00004000400040004000400040004000400F2
:100EE00004000400040004000400040004000400E2
:100EF00004000400040004000400040004000400D2
:1014000005000500050005000600060006000600B0
:10141000060006000600060006000600060006009C
:10142000060006000600060006000600060006008C
:10143000060006000600060006000600060006007C
:10144000060006000600060006000600060006006C
:10180000070008000700070007000700070007009F
:101810000700070007000700070007000700070090
:101820000700070007000700070007000700070080
:101830000700070007000700070007000700070070
:101840000700070007000700070007000700070060
:101850000700070007000700070007000700070050
:101860000700070007000700070007000700070040
:101870000700070007000700070007000700070030
:101880000700070007000700070007000700070020
:101890000700070007000700070007000700070010
:1018A0000700070007000700070007000700070000
:1018B00007000700070007000700070007000700F0
:1018C00007000700070007000700070007000700E0
:1018D00007000700070007000700070007000700D0
:1018E00007000700070007000700070007000700C0
:1018F00007000700070007000700070007000700B0
:10190000070007000700070007000700070007009F
:10191000070007000700070007000700070007008F
:10192000070007000700070007000700070007007F
:10193000070007000700070007000700070007006F
:10194000070007000700070007000700070007005F
:10195000070007000700080008000800080008004A
:101960000800080008000800080008000800080037
:101970000800080008000800080008000800080027
:101980000800080008000800080008000800080017
:101990000800080008000800080008000800080007
:1019A00008000800080008000800080008000800F7
:1019B00008000800080008000800080008000800E7
:1019C00008000800080008000800080008000800D7
:1019D00008000800080008000800080008000800C7
:1019E00008000800080008000800080008000800B7
:1019F00008000800080008000800080008000800A7
:101A00000800080008000800080008000800080096
:101A10000800080008000800080008000800080086
:101A20000800080008000800080008000800080076
:101A30000800080008000800080008000800080066
:101A40000800080008000800080008000800080056
:101A50000800080008000800080008000800080046
:101A60000800080008000800080008000800080036
:101A70000800080008000800080008000800080026
:101A80000800080008000800080008000800080016
:101A90000800080008000800080008000800080006
:101AA00008000800080008000800080009000900F4
:101AB00009000900090009000900090009000900DE
:101AC00009000900090009000900090009000900CE
:101AD00009000900090009000900090009000900BE
:101AE00009000900090009000900090009000900AE
:101D500009000A000A000A000A000A000A000A0034
:101D60000A000A000A000A000A000A000A000A0023
:101D70000A000A000A000A000A000A000A000A0013
:101D80000A000A000A000A000A000A000A000A0003
:101D90000A000A000A000A000A000A000A000A00F3
:101FF0000A000A000A000A000A000A000B000B008F
:102000000B000B000B000B000B000B000B000B0078
:102010000B000B000B000B000B000B000B000B0068
:102020000B000B000B000B000B000B000B000B0058
:102030000B000B000B000B000B000B000B000B0048
:1022A0000B000C000C000C000C000C000C000C00CF
:1022B0000C000C000C000C000C000C000C000C00BE
:1022C0000C000C000C000C000C000C000C000C00AE
:1022D0000C000C000C000C000C000C000C000C009E
:1022E0000C000C000C000C000C000C000C000C008E
:1022F0000C000C000C000C000C000C000C000C007E
:102300000C000C000C000C000C000C000C000C006D
:102310000C000C000C000C000C000C000C000C005D
:102320000C000C000C000C000C000C000C000C004D
:102330000C000C000C000C000C000C000C000C003D
:102340000C000C000C000C000C000C000C000C002D
:102350000C000C000C000C000C000C000C000C001D
:102360000C000C000C000C000C000C000C000C000D
:102370000C000C000C000C000C000C000C000C00FD
:102380000C000C000C000C000C000C000C000C00ED
:102390000C000C000C000C000C000C000C000C00DD
:1023A0000C000C000C000C000C000C000C000C00CD
:1023B0000C000C000C000C000C000C000C000C00BD
:1023C0000C000C000C000C000C000C000C000C00AD
:1023D0000C000C000C000C000C000C000C000C009D
:1023E0000C000C000C000C000C000C000C000C008D
:1023F0000C000C000C000C000D000D000D000D0079
:102400000D000D000D000D000D000D000D000D0064
:102410000D000D000D000D000D000D000D000D0054
:102420000D000D000D000D000D000D000D000D0044
:102430000D000D000D000D000D000D000D000D0034
:102940000E000E000E000E000E000F000F000F0014
:102950000F000F000F000F000F000F000F000F00FF
:102960000F000F000F000F000F000F000F000F00EF
:102970000F000F000F000F000F000F000F000F00DF
:102980000F000F000F000F000F000F000F000F00CF
:102990000F000F000F000F000F000F000F000F00BF
:1029A0000F000F000F000F000F000F000F000F00AF
:1029B0000F000F000F000F000F000F000F000F009F
:1029C0000F000F000F000F000F000F000F000F008F
:1029D0000F000F000F000F000F000F000F000F007F
:1029E0000F000F000F000F000F000F000F000F006F
:1029F0000F000F000F000F000F000F000F000F005F
:102A00000F000F000F000F000F000F000F000F004E
:102A10000F000F000F000F000F000F000F000F003E
:102A20000F000F000F000F000F000F000F000F002E
:102A30000F000F000F000F000F000F000F000F001E
:102A40000F000F000F000F000F000F000F000F000E
:102A50000F000F000F000F000F000F000F000F00FE
:102A60000F000F000F000F000F000F000F000F00EE
:102A70000F000F000F000F000F000F000F000F00DE
:102A80000F000F000F000F000F000F000F000F00CE
:102A90000F000F000F000F000F000F0010001000BC
:102AA00010001000100010001000100010001000A6
:102AB0001000100010001000100010001000100096
:102AC0001000100010001000100010001000100086
:102AD0001000100010001000100010001000100076
:102D400010001000110011001100110011001100FD
:102D500011001100110011001100110011001100EB
:102D600011001100110011001100110011001100DB
:102D700011001100110011001100110011001100CB
:102D800011001100110011001100110011001100BB
:102D900011001100110011001100110011001100AB
:102DA000110011001100110011001100110011009B
:102DB000110011001100110011001100110011008B
:102DC000110011001100110011001100110011007B
:102DD000110011001100110011001100110011006B
:102DE000110011001100110011001100110011005B
:102DF000110011001100110011001100110011004B
:102E0000110011001100110011001100110011003A
:102E1000110011001100110011001100110011002A
:102E2000110011001100110011001100110011001A
:102E3000110011001100110011001100110011000A
:102E400011001100110011001100110011001100FA
:102E500011001100110011001100110011001100EA
:102E600011001100110011001100110011001100DA
:102E700011001100110011001100110011001100CA
:102E800011001100110011001100110011001100BA
:102E900011001100110011001200120012001200A6
:102EA0001200120012001200120012001200120092
:102EB0001200120012001200120012001200120082
:102EC0001200120012001200120012001200120072
:102ED0001200120012001200120012001200120062
:103290001300130014001400140014001400140090
:1032A000140014001400140014001400140014007E
:1032B000140014001400140014001400140014006E
:1032C000140014001400140014001400140014005E
:1032D000140014001400140014001400140014004E
:1035300014001400140014001400140015001500E9
:1035400015001500150015001500150015001500D3
:1035500015001500150015001500150015001500C3
:1035600015001500150015001500150015001500B3
:1035700015001500150015001500150015001500A3
:1039300016001600160016001700170017001700D3
:1039400017001700170017001700170017001700BF
:1039500017001700170017001700170017001700AF
:10396000170017001700170017001700170017009F
:10397000170017001700170017001700170017008F
:10398000170017001700170017001700170017007F
:10399000170017001700170017001700170017006F
:1039A000170017001700170017001700170017005F
:1039B000170017001700170017001700170017004F
:1039C000170017001700170017001700170017003F
:1039D000170017001700170017001700170017002F
:1039E000170017001700170017001700170017001F
:1039F000170017001700170017001700170017000F
:103A000017001700170017001700170017001700FE
:103A100017001700170017001700170017001700EE
:103A200017001700170017001700170017001700DE
:103A300017001700170017001700170017001700CE
:103A400017001700170017001700170017001700BE
:103A500017001700170017001700170017001700AE
:103A6000170017001700170017001700170017009E
:103A7000170017001700170017001700170017008E
:103A8000170017001700170017001700180018007C
:103A90001800180018001800180018001800180066
:103AA0001800180018001800180018001800180056
:103AB0001800180018001800180018001800180046
:103AC0001800180018001800180018001800180036
:103AD0001800180018001800180018001800180026
:103AE0001800180018001800180018001800180016
:103AF0001800180018001800180018001800180006
:103B000018001800180018001800180018001800F5
:103B100018001800180018001800180018001800E5
:103B200018001800180018001800180018001800D5
:103B300018001800180018001800180018001800C5
:103B400018001800180018001800180018001800B5
:103B500018001800180018001800180018001800A5
:103B60001800180018001800180018001800180095
:103B70001800180018001800180018001800180085
:103B80001800180018001800180018001800180075
:103B90001800180018001800180018001800180065
:103BA0001800180018001800180018001800180055
:103BB0001800180018001800180018001800180045
:103BC0001800180018001800180018001800180035
:103BD0001800180018001800180018001800190024
:103BE000190019001900190019001900190019000D
:103BF00019001900190019001900190019001900FD
:103C000019001900190019001900190019001900EC
:103C100019001900190019001900190019001900DC
:103E800019001900190019001A001A001A001A0066
:103E90001A001A001A001A001A001A001A001A0052
:103EA0001A001A001A001A001A001A001A001A0042
:103EB0001A001A001A001A001A001A001A001A0032
:103EC0001A001A001A001A001A001A001A001A0022
:103ED0001A001A001A001A001A001A001A001A0012
:103EE0001A001A001A001A001A001A001A001A0002
:103EF0001A001A001A001A001A001A001A001A00F2
:103F00001A001A001A001A001A001A001A001A00E1
:103F10001A001A001A001A001A001A001A001A00D1
:103F20001A001A001A001A001A001A001A001A00C1
:103F30001A001A001A001A001A001A001A001A00B1
:103F40001A001A001A001A001A001A001A001A00A1
:103F50001A001A001A001A001A001A001A001A0091
:103F60001A001A001A001A001A001A001A001A0081
:103F70001A001A001A001A001A001A001A001A0071
:103F80001A001A001A001A001A001A001A001A0061
:103F90001A001A001A001A001A001A001A001A0051
:103FA0001A001A001A001A001A001A001A001A0041
:103FB0001A001A001A001A001A001A001A001A0031
:103FC0001A001A001A001A001A001A001A001A0021
:103FD0001A001A001A001A001A001B001B001B000E
:103FE0001B001B001B001B001B001B001B001B00F9
:103FF0001B001B001B001B001B001B001B001B00E9
:104000001B001B001B001B001B001B001B001B00D8
:104010001B001B001B001B001B001B001B001B00C8
:104280001C001C001D001D001D001D001D001D0048
:104290001D001D001D001D001D001D001D001D0036
:1042A0001D001D001D001D001D001D001D001D0026
:1042B0001D001D001D001D001D001D001D001D0016
:1042C0001D001D001D001D001D001D001D001D0006
:104520001D001D001D001D001D001D001E001E00A1
:104530001E001E001E001E001E001E001E001E008B
:104540001E001E001E001E001E001E001E001E007B
:104550001E001E001E001E001E001E001E001E006B
:104560001E001E001E001E001E001E001E001E005B
:104570001E001E001E001E001E001E001E001E004B
:104580001E001E001E001E001E001E001E001E003B
:104590001E001E001E001E001E001E001E001E002B
:1045A0001E001E001E001E001E001E001E001E001B
:1045B0001E001E001E001E001E001E001E001E000B
:1045C0001E001E001E001E001E001E001E001E00FB
:1045D0001E001E001E001E001E001E001E001E00EB
:1045E0001E001E001E001E001E001E001E001E00DB
:1045F0001E001E001E001E001E001E001E001E00CB
:104600001E001E001E001E001E001E001E001E00BA
:104610001E001E001E001E001E001E001E001E00AA
:104620001E001E001E001E001E001E001E001E009A
:104630001E001E001E001E001E001E001E001E008A
:104640001E001E001E001E001E001E001E001E007A
:104650001E001E001E001E001E001E001E001E006A
:104660001E001E001E001E001E001E001E001E005A
:104670001E001E001E001E001E001E001E001F0049
:104680001F001F001F001F001F001F001F001F0032
:104690001F001F001F001F001F001F001F001F0022
:1046A0001F001F001F001F001F001F001F001F0012
:1046B0001F001F001F001F001F001F001F001F0002
:1046C0001F001F001F001F001F001F001F001F00F2
:1046D0001F001F001F001F001F001F001F001F00E2
:1046E0001F001F001F001F001F001F001F001F00D2
:1046F0001F001F001F001F001F001F001F001F00C2
:104700001F001F001F001F001F001F001F001F00B1
:104710001F001F001F001F001F001F001F001F00A1
:104720001F001F001F001F001F001F001F001F0091
:104730001F001F001F001F001F001F001F001F0081
:104740001F001F001F001F001F001F001F001F0071
:104750001F001F001F001F001F001F001F001F0061
:104760001F001F001F001F001F001F001F001F0051
:104770001F001F001F001F001F001F001F001F0041
:104780001F001F001F001F001F001F001F001F0031
:104790001F001F001F001F001F001F001F001F0021
:1047A0001F001F001F001F001F001F001F001F0011
:1047B0001F001F001F001F001F001F001F001F0001
:1047C0001F001F001F001F001F001F001F001F00F1
:1047D0001F001F00200020002000200020002000DB
:1047E00020002000200020002000200020002000C9
:1047F00020002000200020002000200020002000B9
:1048000020002000200020002000200020002000A8
:104810002000200020002000200020002000200098
:104820002000200020002000200020002000200088
:104830002000200020002000200020002000200078
:104840002000200020002000200020002000200068
:104850002000200020002000200020002000200058
:104860002000200020002000200020002000200048
:104870002000200020002000200020002000200038
:104880002000200020002000200020002000200028
:104890002000200020002000200020002000200018
:1048A0002000200020002000200020002000200008
:1048B00020002000200020002000200020002000F8
:1048C00020002000200020002000200020002000E8
:1048D00020002000200020002000200020002000D8
:1048E00020002000200020002000200020002000C8
:1048F00020002000200020002000200020002000B8
:1049000020002000200020002000200020002000A7
:104910002000200020002000200020002000200097
:104920002000200020002100210021002100210082
:10493000210021002100210021002100210021006F
:10494000210021002100210021002100210021005F
:10495000210021002100210021002100210021004F
:10496000210021002100210021002100210021003F
:10497000210021002100210021002100210021002F
:10498000210021002100210021002100210021001F
:10499000210021002100210021002100210021000F
:1049A00021002100210021002100210021002100FF
:1049B00021002100210021002100210021002100EF
:1049C00021002100210021002100210021002100DF
:1049D00021002100210021002100210021002100CF
:1049E00021002100210021002100210021002100BF
:1049F00021002100210021002100210021002100AF
:104A0000210021002100210021002100210021009E
:104A1000210021002100210021002100210021008E
:104A2000210021002100210021002100210021007E
:104A3000210021002100210021002100210021006E
:104A4000210021002100210021002100210021005E
:104A5000210021002100210021002100210021004E
:104A6000210021002100210021002100210021003E
:104A7000210021002100210021002100220022002C
:104A80002200220022002200220022002200220016
:104A90002200220022002200220022002200220006
:104AA00022002200220022002200220022002200F6
:104AB00022002200220022002200220022002200E6
:104D20002300230024002400240024002400240065
:104D30002400240024002400240024002400240053
:104D40002400240024002400240024002400240043
:104D50002400240024002400240024002400240033
:104D60002400240024002400240024002400240023
:104D70002400240024002400240024002400240013
:104D80002400240024002400240024002400240003
:104D900024002400240024002400240024002400F3
:104DA00024002400240024002400240024002400E3
:104DB00024002400240024002400240024002400D3
:104DC00024002400240024002400240024002400C3
:104DD00024002400240024002400240024002400B3
:104DE00024002400240024002400240024002400A3
:104DF0002400240024002400240024002400240093
:104E00002400240024002400240024002400240082
:104E10002400240024002400240024002400240072
:104E20002400240024002400240024002400240062
:104E30002400240024002400240024002400240052
:104E40002400240024002400240024002400240042
:104E50002400240024002400240024002400240032
:104E60002400240024002400240024002400240022
:104E7000240024002400240025002500250025000E
:104E800025002500250025002500250025002500FA
:104E900025002500250025002500250025002500EA
:104EA00025002500250025002500250025002500DA
:104EB00025002500250025002500250025002500CA
:104EC00025002500250025002500250025002500BA
:104ED00025002500250025002500250025002500AA
:104EE000250025002500250025002500250025009A
:104EF000250025002500250025002500250025008A
:104F00002500250025002500250025002500250079
:104F10002500250025002500250025002500250069
:104F20002500250025002500250025002500250059
:104F30002500250025002500250025002500250049
:104F40002500250025002500250025002500250039
:104F50002500250025002500250025002500250029
:104F60002500250025002500250025002500250019
:104F70002500250025002500250025002500250009
:104F800025002500250025002500250025002500F9
:104F900025002500250025002500250025002500E9
:104FA00025002500250025002500250025002500D9
:104FB00025002500250025002500250025002500C9
:104FC00025002500250025002500250026002600B7
:104FD00026002600260026002600260026002600A1
:104FE0002600260026002600260026002600260091
:104FF0002600260026002600260026002600260081
:105000002600260026002600260026002600260070
:1052700027002700280028002800280028002800F0
:1052800028002800280028002800280028002800DE
:1052900028002800280028002800280028002800CE
:1052A00028002800280028002800280028002800BE
:1052B00028002800280028002800280028002800AE
:1052C000280028002800280028002800280028009E
:1052D000280028002800280028002800280028008E
:1052E000280028002800280028002800280028007E
:1052F000280028002800280028002800280028006E
:10530000280028002800280028002800280028005D
:10531000280028002800280028002800280028004D
:10532000280028002800280028002800280028003D
:10533000280028002800280028002800280028002D
:10534000280028002800280028002800280028001D
:10535000280028002800280028002800280028000D
:1053600028002800280028002800280028002800FD
:1053700028002800280028002800280028002800ED
:1053800028002800280028002800280028002800DD
:1053900028002800280028002800280028002800CD
:1053A00028002800280028002800280028002800BD
:1053B00028002800280028002800280028002800AD
:1053C0002800280028002800290029002900290099
:1053D0002900290029002900290029002900290085
:1053E0002900290029002900290029002900290075
:1053F0002900290029002900290029002900290065
:105400002900290029002900290029002900290054
:105410002900290029002900290029002900290044
:105420002900290029002900290029002900290034
:105430002900290029002900290029002900290024
:105440002900290029002900290029002900290014
:105450002900290029002900290029002900290004
:1054600029002900290029002900290029002900F4
:1054700029002900290029002900290029002900E4
:1054800029002900290029002900290029002900D4
:1054900029002900290029002900290029002900C4
:1054A00029002900290029002900290029002900B4
:1054B00029002900290029002900290029002900A4
:1054C0002900290029002900290029002900290094
:1054D0002900290029002900290029002900290084
:1054E0002900290029002900290029002900290074
:1054F0002900290029002900290029002900290064
:105500002900290029002900290029002900290053
:105510002900290029002900290029002A002A0041
:105520002A002A002A002A002A002A002A002A002B
:105530002A002A002A002A002A002A002A002A001B
:105540002A002A002A002A002A002A002A002A000B
:105550002A002A002A002A002A002A002A002A00FB
:1057C0002B002C002C002C002C002C002C002C007A
:1057D0002C002C002C002C002C002C002C002C0069
:1057E0002C002C002C002C002C002C002C002C0059
:1057F0002C002C002C002C002C002C002C002C0049
:105800002C002C002C002C002C002C002C002C0038
:105810002C002C002C002C002C002C002C002C0028
:105820002C002C002C002C002C002C002C002C0018
:105830002C002C002C002C002C002C002C002C0008
:105840002C002C002C002C002C002C002C002C00F8
:105850002C002C002C002C002C002C002C002C00E8
:105860002C002C002C002C002C002C002C002C00D8
:105870002C002C002C002C002C002C002C002C00C8
:105880002C002C002C002C002C002C002C002C00B8
:105890002C002C002C002C002C002C002C002C00A8
:1058A0002C002C002C002C002C002C002C002C0098
:1058B0002C002C002C002C002C002C002C002C0088
:1058C0002C002C002C002C002C002C002C002C0078
:1058D0002C002C002C002C002C002C002C002C0068
:1058E0002C002C002C002C002C002C002C002C0058
:1058F0002C002C002C002C002C002C002C002C0048
:105900002C002C002C002C002C002C002C002C0037
:105910002C002C002C002C002D002D002D002D0023
:105920002D002D002D002D002D002D002D002D000F
:105930002D002D002D002D002D002D002D002D00FF
:105940002D002D002D002D002D002D002D002D00EF
:105950002D002D002D002D002D002D002D002D00DF
:105960002D002D002D002D002D002D002D002D00CF
:105970002D002D002D002D002D002D002D002D00BF
:105980002D002D002D002D002D002D002D002D00AF
:105990002D002D002D002D002D002D002D002D009F
:1059A0002D002D002D002D002D002D002D002D008F
:1059B0002D002D002D002D002D002D002D002D007F
:1059C0002D002D002D002D002D002D002D002D006F
:1059D0002D002D002D002D002D002D002D002D005F
:1059E0002D002D002D002D002D002D002D002D004F
:1059F0002D002D002D002D002D002D002D002D003F
:105A00002D002D002D002D002D002D002D002D002E
:105A10002D002D002D002D002D002D002D002D001E
:105A20002D002D002D002D002D002D002D002D000E
:105A30002D002D002D002D002D002D002D002D00FE
:105A40002D002D002D002D002D002D002D002D00EE
:105A50002D002D002D002D002D002D002D002D00DE
:105A60002D002D002D002D002D002E002E002E00CB
:105A70002E002E002E002E002E002E002E002E00B6
:105A80002E002E002E002E002E002E002E002E00A6
:105A90002E002E002E002E002E002E002E002E0096
:105AA0002E002E002E002E002E002E002E002E0086
:105D10002F00300030003000300030003000300004
:105D200030003000300030003000300030003000F3
:105D300030003000300030003000300030003000E3
:105D400030003000300030003000300030003000D3
:105D500030003000300030003000300030003000C3
:105D600030003000300030003000300030003000B3
:105D700030003000300030003000300030003000A3
:105D80003000300030003000300030003000300093
:105D90003000300030003000300030003000300083
:105DA0003000300030003000300030003000300073
:105DB0003000300030003000300030003000300063
:105DC0003000300030003000300030003000300053
:105DD0003000300030003000300030003000300043
:105DE0003000300030003000300030003000300033
:105DF0003000300030003000300030003000300023
:105E00003000300030003000300030003000300012
:105E10003000300030003000300030003000300002
:105E200030003000300030003000300030003000F2
:105E300030003000300030003000300030003000E2
:105E400030003000300030003000300030003000D2
:105E500030003000300030003000300030003000C2
:105E600030003000300030003100310031003100AE
:105E7000310031003100310031003100310031009A
:105E8000310031003100310031003100310031008A
:105E9000310031003100310031003100310031007A
:105EA000310031003100310031003100310031006A
:105EB000310031003100310031003100310031005A
:105EC000310031003100310031003100310031004A
:105ED000310031003100310031003100310031003A
:105EE000310031003100310031003100310031002A
:105EF000310031003100310031003100310031001A
:105F00003100310031003100310031003100310009
:105F100031003100310031003100310031003100F9
:105F200031003100310031003100310031003100E9
:105F300031003100310031003100310031003100D9
:105F400031003100310031003100310031003100C9
:105F500031003100310031003100310031003100B9
:105F600031003100310031003100310031003100A9
:105F70003100310031003100310031003100310099
:105F80003100310031003100310031003100310089
:105F90003100310031003100310031003100310079
:105FA0003100310031003100310031003100310069
:105FB0003100310031003100310031003300320056
:105FC0003200320033003200320032003200320040
:105FD000330032003200320032003300320032002F
:105FE0003200320032003300320032003200320020
:105FF000320033003200320032003200330032000F
:1060000032003200320032003300320032003200FF
:1060100032003300320032003200320032003300EE
:1060200032003200320032003200330032003200DF
:1060300032003200330032003200320032003200CF
:1060400033003200320032003200320032003200BF
:1060500032003200320032003200320032003200B0
:1060600032003200320032003200320032003200A0
:106070003200320032003200320032003200320090
:10608000320032003200320032003200320033007F
:10609000320032003200320032003300320032006F
:1060A000320032003300320032003200320032005F
:1060B000330032003200320032003200330032004E
:1060C000320032003200330032003200320032003F
:1060D000320033003200320032003200330032002E
:1060E000320032003200320033003200320032001F
:1060F000320032003300320032003200320033000E
:1061000032003200320032003200330032003200FE
:1061100034003400340034003400340034003400DF
:1061200034003400340034003400340034003400CF
:1061300034003400340034003400340034003400BF
:1061400034003400340034003400340034003400AF
:10615000340034003400340034003400340034009F
:10616000340034003400340034003400340034008F
:10617000340034003400340034003400340034007F
:10618000340034003400340034003400340034006F
:10619000340034003400340034003400340034005F
:1061A000340034003400340034003400340034004F
:1061B000340034003400340034003400340034003F
:1061C000340034003400340034003400340034002F
:1061D000340034003400340034003400340034001F
:1061E000340034003400340034003400340034000F
:1061F00034003400340034003400340034003400FF
:1062000034003400340034003400340034003400EE
:1062100034003400340034003400340034003400DE
:1062200034003400340034003400340034003400CE
:1062300034003400340034003400340034003400BE
:1062400034003400340034003400340034003400AE
:10625000340034003400340034003400340034009E
:106260003400340035003500350035003500350088
:106270003500350035003500350035003500350076
:106280003500350035003500350035003500350066
:106290003500350035003500350035003500350056
:1062A0003500350035003500350035003500350046
:1062B0003500350035003500350035003500350036
:1062C0003500350035003500350035003500350026
:1062D0003500350035003500350035003500350016
:1062E0003500350035003500350035003500350006
:1062F00035003500350035003500350035003500F6
:1063000035003500350035003500350035003500E5
:1063100035003500350035003500350035003500D5
:1063200035003500350035003500350035003500C5
:1063300035003500350035003500350035003500B5
:1063400035003500350035003500350035003500A5
:106350003500350035003500350035003500350095
:106360003500350035003500350035003500350085
:106370003500350035003500350035003500350075
:106380003500350035003500350035003500350065
:106390003500350035003500350035003500350055
:1063A0003500350035003500350035003500350045
:1063B0003500350035003500360036003600360031
:1063C000360036003600360036003600360036001D
:1063D000360036003600360036003600360036000D
:1063E00036003600360036003600360036003600FD
:1063F00036003600360036003600360036003600ED
:1064000036003600360036003600360036003600DC
:1064100036003600360036003600360036003600CC
:1064200036003600360036003600360036003600BC
:1064300036003600360036003600360036003600AC
:10644000360036003600360036003600360036009C
:10645000360036003600360036003600360036008C
:10646000360036003600360036003600360036007C
:10647000360036003600360036003600360036006C
:10648000360036003600360036003600360036005C
:10649000360036003600360036003600360036004C
:1064A000360036003600360036003600360036003C
:1064B000360036003600360036003600360036002C
:1064C000360036003600360036003600360036001C
:1064D000360036003600360036003600360036000C
:1064E00036003600360036003600360036003600FC
:1064F00036003600360036003600360036003600EC
:1065000036003600360036003600360038003700D8
:1065100037003700370037003700380037003700C2
:1065200037003700370037003800370037003700B2
:1065300037003700370038003700370037003700A2
:106540003700370038003700370037003700370092
:106550003800370037003700370037003700380081
:106560003700370037003700370037003800370072
:106570003700370037003700370038003700370062
:106580003700370037003700380037003700370052
:106590003700370037003800370037003700370042
:1065A0003700370037003700370037003700370033
:1065B0003700370037003700370037003700370023
:1065C0003700370037003700370037003700370013
:1065D0003700370037003700370037003700370003
:1065E00037003700370037003800370037003700F2
:1065F00037003700380037003700370037003700E2
:1066000037003800370037003700370037003700D1
:1066100038003700370037003700370037003800C0
:1066200037003700370037003700370038003700B1
:1066300037003700370037003800370037003700A1
:106640003700370037003800370037003700370091
:106650003700370038003700370037003700370081
:106660003900390039003900390039003900390062
:106670003900390039003900390039003900390052
:106680003900390039003900390039003900390042
:106690003900390039003900390039003900390032
:1066A0003900390039003900390039003900390022
:1066B0003900390039003900390039003900390012
:1066C0003900390039003900390039003900390002
:1066D00039003900390039003900390039003900F2
:1066E00039003900390039003900390039003900E2
:1066F00039003900390039003900390039003900D2
:1067000039003900390039003900390039003900C1
:1067100039003900390039003900390039003900B1
:1067200039003900390039003900390039003900A1
:106730003900390039003900390039003900390091
:106740003900390039003900390039003900390081
:106750003900390039003900390039003900390071
:106760003900390039003900390039003900390061
:106770003900390039003900390039003900390051
:106780003900390039003900390039003900390041
:106790003900390039003900390039003900390031
:1067A0003900390039003900390039003900390021
:1067B000390039003A003A003A003A003A003A000B
:1067C0003A003A003A003A003A003A003A003A00F9
:1067D0003A003A003A003A003A003A003A003A00E9
:1067E0003A003A003A003A003A003A003A003A00D9
:1067F0003A003A003A003A003A003A003A003A00C9
:106800003A003A003A003A003A003A003A003A00B8
:106810003A003A003A003A003A003A003A003A00A8
:106820003A003A003A003A003A003A003A003A0098
:106830003A003A003A003A003A003A003A003A0088
:106840003A003A003A003A003A003A003A003A0078
:106850003A003A003A003A003A003A003A003A0068
:106860003A003A003A003A003A003A003A003A0058
:106870003A003A003A003A003A003A003A003A0048
:106880003A003A003A003A003A003A003A003A0038
:106890003A003A003A003A003A003A003A003A0028
:1068A0003A003A003A003A003A003A003A003A0018
:1068B0003A003A003A003A003A003A003A003A0008
:1068C0003A003A003A003A003A003A003A003A00F8
:1068D0003A003A003A003A003A003A003A003A00E8
:1068E0003A003A003A003A003A003A003A003A00D8
:1068F0003A003A003A003A003A003A003A003A00C8
:106900003A003A003A003A003C003B003B003B00B2
:106910003B003B003B003C003B003B003B003B009E
:106920003B003B003B003B003C003B003B003B008E
:106930003B003B003B003B003C003B003B003B007E
:106940003B003B003B003B003C003B003B003B006E
:106950003B003B003B003B003C003B003B003B005E
:106960003B003B003B003B003B003C003B003B004E
:106970003B003B003B003B003B003C003B003B003E
:106980003B003B003B003B003B003C003B003B002E
:106990003B003B003B003B003B003B003B003B001F
:1069A0003B003B003B003B003B003B003C003B000E
:1069B0003B003B003B003B003B003B003B003B00FF
:1069C0003B003B003B003B003B003B003C003B00EE
:1069D0003B003B003B003B003B003B003C003B00DE
:1069E0003B003B003B003B003B003B003B003C00CE
:1069F0003B003B003B003B003B003B003B003C00BE
:106A00003B003B003B003B003B003B003B003C00AD
:106A10003B003B003B003B003B003B003B003C009D
:106A20003B003B003B003B003B003B003B003B008E
:106A30003C003B003B003B003B003B003B003B007D
:106A40003C003B003B003B003B003B003B003B006D
:106A50003C003B003B003B003B003B003D003D0059
:106A60003D003D003D003D003D003D003D003D003E
:106A70003D003D003D003D003D003D003D003D002E
:106A80003D003D003D003D003D003D003D003D001E
:106A90003D003D003D003D003D003D003D003D000E
:106D00003E003F0040003F003F003F003F003F008B
:106D10003F003F0040003F003F003F003F003F007A
:106D20003F003F003F003F0040003F003F003F006A
:106D30003F003F003F003F003F003F0040003F005A
:106D40003F003F003F003F003F003F003F003F004B
:106D50003F0040003F003F003F003F003F003F003A
:106D60003F003F003F0040003F003F003F003F002A
:106D70003F003F003F003F003F003F0040003F001A
:106D80003F003F003F003F003F003F003F003F000B
:106D900040003F003F003F003F003F003F003F00FA
:106DA0003F003F003F0040003F003F003F003F00EA
:106DB0003F003F003F003F003F0040003F003F00DA
:106DC0003F003F003F003F003F003F003F003F00CB
:106DD00040003F003F003F003F003F003F003F00BA
:106DE0003F003F0040003F003F003F003F003F00AA
:106DF0003F003F003F003F0040003F003F003F009A
:106E00003F003F003F003F003F003F003F00400089
:106E10003F003F003F003F003F003F003F003F007A
:106E20003F0040003F003F003F003F003F003F0069
:106E30003F003F003F003F0040003F003F003F0059
:106E40003F003F003F003F003F003F0040003F0049
:106E50003F003F003F003F00410041004100410032
:106E6000410041004100410041004100410041001A
:106E7000410041004100410041004100410041000A
:106E800041004100410041004100410041004100FA
:106E900041004100410041004100410041004100EA
:106EA00041004100410041004100410041004100DA
:106EB00041004100410041004100410041004100CA
:106EC00041004100410041004100410041004100BA
:106ED00041004100410041004100410041004100AA
:106EE000410041004100410041004100410041009A
:106EF000410041004100410041004100410041008A
:106F00004100410041004100410041004100410079
:106F10004100410041004100410041004100410069
:106F20004100410041004100410041004100410059
:106F30004100410041004100410041004100410049
:106F40004100410041004100410041004100410039
:106F50004100410041004100410041004100410029
:106F60004100410041004100410041004100410019
:106F70004100410041004100410041004100410009
:106F800041004100410041004100410041004100F9
:106F900041004100410041004100410041004100E9
:106FA00041004100410041004100410042004300D6
:106FB00042004200420042004200420042004200C1
:106FC00042004200420042004300420042004200B0
:106FD00042004200420042004200420042004200A1
:106FE0004200430042004200420042004200420090
:106FF0004200420042004200420042004300420080
:107000004200420042004200420042004200420070
:10701000420042004200420043004200420042005F
:107020004200420042004200420042004200420050
:10703000420043004200420042004200420042003F
:10704000420042004200420042004200430042002F
:107050004200420042004200420042004200420020
:107060004200420042004200420042004200420010
:107070004200420042004200420042004200420000
:1070800043004200420042004200420042004200EF
:1070900042004200420042004200430042004200DF
:1070A00042004200420042004200420042004200D0
:1070B00042004200430042004200420042004200BF
:1070C00042004200420042004200420042004300AF
:1070D00042004200420042004200420042004200A0
:1070E000420042004200420043004200420042008F
:1070F0004200420042004200420042004200420080
:10710000440044004400440044004400440044005F
:10711000440044004400440044004400440044004F
:10712000440044004400440044004400440044003F
:10713000440044004400440044004400440044002F
:10714000440044004400440044004400440044001F
:10715000440044004400440044004400440044000F
:1071600044004400440044004400440044004400FF
:1071700044004400440044004400440044004400EF
:1071800044004400440044004400440044004400DF
:1071900044004400440044004400440044004400CF
:1071A00044004400440044004400440044004400BF
:1071B00044004400440044004400440044004400AF
:1071C000440044004400440044004400440044009F
:1071D000440044004400440044004400440044008F
:1071E000440044004400440044004400440044007F
:1071F000440044004400440044004400440044006F
:10720000440044004400440044004400440044005E
:10721000440044004400440044004400440044004E
:10722000440044004400440044004400440044003E
:10723000440044004400440044004400440044002E
:10724000440044004400440044004400440044001E
:107250004400440045004500450045004500450008
:1072600045004500450046004500450045004500F5
:1072700045004500450045004500450045004500E6
:1072800045004500450045004600450045004500D5
:1072900045004500450045004500450045004500C6
:1072A00045004500450045004500460045004500B5
:1072B00045004500450045004500450045004500A6
:1072C0004500450045004500450045004600450095
:1072D0004500450045004500450045004500450086
:1072E0004500450045004500450045004500450076
:1072F0004600450045004500450045004500450065
:107300004500450045004500450045004500450055
:107310004500460045004500450045004500450044
:107320004500450045004500450045004500450035
:107330004500450046004500450045004500450024
:107340004500450045004500450045004500450015
:107350004500450045004500460045004500450004
:1073600045004500450045004500450045004500F5
:1073700045004500450045004500460045004500E4
:1073800045004500450045004500450045004500D5
:1073900045004500450045004500450046004500C4
:1073A00045004500450045004700470047004700AD
:1073B0004700470047004700470048004700470094
:1073C0004700470047004700470047004700470085
:1073D0004700470047004700470047004700470075
:1073E0004700470047004800470047004700470064
:1073F0004700470047004700470047004700470055
:107400004700470047004700470047004700470044
:107410004700470048004700470047004700470033
:107420004700470047004700470047004700470024
:107430004700470047004700470047004700470014
:107440004800470047004700470047004700470003
:1074500047004700470047004700470047004700F4
:1074600047004700470047004700470048004700E3
:1074700047004700470047004700470047004700D4
:1074800047004700470047004700470047004700C4
:1074900047004700470047004800470047004700B3
:1074A00047004700470047004700470047004700A4
:1074B0004700470047004700470047004700470094
:1074C0004700470048004700470047004700470083
:1074D0004700470047004700470047004700470074
:1074E0004700470047004700470047004700470064
:1074F000480047004700470047004700490049004F
:107500004900490049004900490049004900490033
:107510004900490049004900490049004900490023
:107520004900490049004900490049004900490013
:107530004900490049004900490049004900490003
:1075400049004900490049004900490049004900F3
:1075500049004900490049004900490049004900E3
:1075600049004900490049004900490049004900D3
:1075700049004900490049004900490049004900C3
:1075800049004900490049004900490049004900B3
:1075900049004900490049004900490049004900A3
:1075A0004900490049004900490049004900490093
:1075B0004900490049004900490049004900490083
:1075C0004900490049004900490049004900490073
:1075D0004900490049004900490049004900490063
:1075E0004900490049004900490049004900490053
:1075F0004900490049004900490049004900490043
:107600004900490049004900490049004900490032
:107610004900490049004900490049004900490022
:107620004900490049004900490049004900490012
:107630004900490049004900490049004900490002
:1076400049004900490049004900490049004900F2
:107650004B004A004A004A004A004A004A004A00D9
:107660004A004A004A004A004A004A004A004A00CA
:107670004A004A004A004A004A004A004A004A00BA
:107680004A004A004A004A004A004A004A004B00A9
:107690004A004A004A004A004A004A004A004A009A
:1076A0004A004A004A004A004A004A004A004A008A
:1076B0004A004A004A004A004A004A004A004A007A
:1076C0004A004A004A004A004A004A004A004A006A
:1076D0004A004A004A004A004A004B004A004A0059
:1076E0004A004A004A004A004A004A004A004A004A
:1076F0004A004A004A004A004A004A004A004A003A
:107700004A004A004A004A004A004A004A004A0029
:107710004A004A004A004A004A004A004A004A0019
:107720004A004A004A004B004A004A004A004A0008
:107730004A004A004A004A004A004A004A004A00F9
:107740004A004A004A004A004A004A004A004A00E9
:107750004A004A004A004A004A004A004A004A00D9
:107760004A004A004A004A004A004A004A004A00C9
:107770004A004B004A004A004A004A004A004A00B8
:107780004A004A004A004A004A004A004A004A00A9
:107790004A004A004A004A004A004A004A004A0099
:1077A0004A004A004D004C004C004C004C004C007C
:1077B0004C004C004C004C004C004C004C004C0069
:1077C0004C004C004C004C004C004C004C004C0059
:1077D0004C004C004C004C004C004C004C004C0049
:1077E0004C004C004C004C004C004C004C004C0039
:1077F0004C004C004C004C004C004C004C004C0029
:107800004C004C004C004C004C004C004C004C0018
:107810004D004C004C004C004C004C004C004C0007
:107820004C004C004C004C004C004C004C004C00F8
:107830004C004C004C004C004C004C004C004C00E8
:107840004C004C004C004C004C004C004C004C00D8
:107850004C004C004C004C004C004C004C004C00C8
:107860004C004C004C004C004C004C004C004C00B8
:107870004C004C004C004C004C004C004C004C00A8
:107880004C004C004C004C004C004C004C004C0098
:107890004C004C004C004C004C004C004C004C0088
:1078A0004C004D004C004C004C004C004C004C0077
:1078B0004C004C004C004C004C004C004C004C0068
:1078C0004C004C004C004C004C004C004C004C0058
:1078D0004C004C004C004C004C004C004C004C0048
:1078E0004C004C004C004C004C004C004C004C0038
:1078F0004C004C004C004C004E004E004E004E0020
:107900004E004E004E004E004E004E004E004E0007
:107910004E004E004E004E004E004E004E004E00F7
:107920004E004E004E004E004E004E004E004E00E7
:107930004E004E004E004E004E004E004E004E00D7
:107940004E004E004E004E004E004E004E004E00C7
:107950004E004E004E004E004E004E004E004E00B7
:107960004E004E004E004E004E004E004E004E00A7
:107970004E004E004E004E004E004E004E004E0097
:107980004E004E004E004E004E004E004E004E0087
:107990004E004E004E004E004E004E004E004E0077
:1079A0004E004E004E004E004E004E004E004E0067
:1079B0004E004E004E004E004E004E004E004E0057
:1079C0004E004E004E004E004E004E004E004E0047
:1079D0004E004E004E004E004E004E004E004E0037
:1079E0004E004E004E004E004E004E004E004E0027
:1079F0004E004E004E004E004E004E004E004E0017
:107A00004E004E004E004E004E004E004E004E0006
:107A10004E004E004E004E004E004E004E004E00F6
:107A20004E004E004E004E004E004E004E004E00E6
:107A30004E004E004E004E004E004E004E004E00D6
:107A40004E004E004E004E004E004E004F004F00C4
:107A50004F004F004F004F004F004F004F004F00AE
:107A60004F004F004F004F004F004F004F004F009E
:107A70004F004F004F004F004F004F004F004F008E
:107A80004F004F004F004F004F004F004F004F007E
:107CF00051005100540053005300530053005300EF
:107D000053005300530053005300530053005300DB
:107D100053005300530053005300530053005300CB
:107D200053005300530053005300530053005300BB
:107D300053005300530053005300530053005300AB
:107D4000530053005300530053005300530053009B
:107D5000530053005300530053005300530053008B
:107D6000530053005300530053005300530053007B
:107D7000530053005300530053005300530053006B
:107D8000530053005300530053005300530053005B
:107D9000530053005300530053005300530053004B
:107DA000530053005300530053005300530053003B
:107DB000530053005300530053005300530053002B
:107DC000530053005300530053005300530053001B
:107DD000530053005300530053005300530053000B
:107DE00053005300530053005300530053005300FB
:107DF00053005300530053005300530053005300EB
:107E000053005300530053005300530053005300DA
:107E100053005300530053005300530053005300CA
:107E200053005300530053005300530053005300BA
:107E300053005300530053005300530053005300AA
:107E40005300530053005300560055005500550091
:107E5000550055005500550055005500550055007A
:107E6000550055005500550055005500550055006A
:107E7000550055005500550055005500550055005A
:107E8000550055005500550055005500550055004A
:107E9000550055005500550055005500550055003A
:107EA000550055005500550055005500550055002A
:107EB000550055005500550055005500550055001A
:107EC000550055005500550055005500550055000A
:107ED00055005500550055005500550055005500FA
:107EE00055005500550055005500550055005500EA
:107EF00055005500550055005500550055005500DA
:107F000055005500550055005500550055005500C9
:107F100055005500550055005500550055005500B9
:107F200055005500550055005500550055005500A9
:107F30005500550055005500550055005500550099
:107F40005500550055005500550055005500550089
:107F50005500550055005500550055005500550079
:107F60005500550055005500550055005500550069
:107F70005500550055005500550055005500550059
:107F80005500550055005500550055005500550049
:107F90005500550055005500550055005800570034
:107FA0005700570057005700570057005700570019
:107FB0005700570057005700570057005700570009
:107FC00057005700570057005700570057005700F9
:107FD00057005700570057005700570057005700E9
:107FE00057005700570057005700570057005700D9
:107FF00057005700570057005700570057005700C9
:1080000057005700570057005700570057005700B8
:1080100057005700570057005700570057005700A8
:108020005700570057005700570057005700570098
:108030005700570057005700570057005700570088
:108040005700570057005700570057005700570078
:108050005700570057005700570057005700570068
:108060005700570057005700570057005700570058
:108070005700570057005700570057005700570048
:108080005700570057005700570057005700570038
:108090005700570057005700570057005700570028
:1080A0005700570057005700570057005700570018
:1080B0005700570057005700570057005700570008
:1080C00057005700570057005700570057005700F8
:1080D00057005700570057005700570057005700E8
:1080E00057005700570057005700570057005700D8
:1080F0005A005900590059005900590059005900B7
:1081000059005900590059005900590059005900A7
:108110005900590059005900590059005900590097
:108120005900590059005900590059005900590087
:108130005900590059005900590059005900590077
:108140005900590059005900590059005900590067
:108150005900590059005900590059005900590057
:108160005900590059005900590059005900590047
:108170005900590059005900590059005900590037
:108180005900590059005900590059005900590027
:108190005900590059005900590059005900590017
:1081A0005900590059005900590059005900590007
:1081B00059005900590059005900590059005900F7
:1081C00059005900590059005900590059005900E7
:1081D00059005900590059005900590059005900D7
:1081E00059005900590059005900590059005900C7
:1081F00059005900590059005900590059005900B7
:1082000059005900590059005900590059005900A6
:108210005900590059005900590059005900590096
:108220005900590059005900590059005900590086
:108230005900590059005900590059005900590076
:10824000590059005C005B005B005B005B005B0059
:108250005B005B005B005B005B005B005B005B0046
:108260005B005B005B005B005B005B005B005B0036
:108270005B005B005B005B005B005B005B005B0026
:108280005B005B005B005B005B005B005B005B0016
:108290005B005B005B005B005B005B005B005B0006
:1082A0005B005B005B005B005B005B005B005B00F6
:1082B0005B005B005B005B005B005B005B005B00E6
:1082C0005B005B005B005B005B005B005B005B00D6
:1082D0005B005B005B005B005B005B005B005B00C6
:1082E0005B005B005B005B005B005B005B005B00B6
:1082F0005B005B005B005B005B005B005B005B00A6
:108300005B005B005B005B005B005B005B005B0095
:108310005B005B005B005B005B005B005B005B0085
:108320005B005B005B005B005B005B005B005B0075
:108330005B005B005B005B005B005B005B005B0065
:108340005B005B005B005B005B005B005B005B0055
:108350005B005B005B005B005B005B005B005B0045
:108360005B005B005B005B005B005B005B005B0035
:108370005B005B005B005B005B005B005B005B0025
:108380005B005B005B005B005B005B005B005B0015
:108390005B005B005B005B005E005D005D005D00FC
:1083A0005D005D005D005D005D005D005D005D00E5
:1083B0005D005D005D005D005D005D005D005D00D5
:1083C0005D005D005D005D005D005D005D005D00C5
:1083D0005D005D005D005D005D005D005D005D00B5
:1083E0005D005D005D005D005D005D005D005D00A5
:1083F0005D005D005D005D005D005D005D005D0095
:108400005D005D005D005D005D005D005D005D0084
:108410005D005D005D005D005D005D005D005D0074
:108420005D005D005D005D005D005D005D005D0064
:108430005D005D005D005D005D005D005D005D0054
:108440005D005D005D005D005D005D005D005D0044
:108450005D005D005D005D005D005D005D005D0034
:108460005D005D005D005D005D005D005D005D0024
:108470005D005D005D005D005D005D005D005D0014
:108480005D005D005D005D005D005D005D005D0004
:108490005D005D005D005D005D005D005D005D00F4
:1084A0005D005D005D005D005D005D005D005D00E4
:1084B0005D005D005D005D005D005D005D005D00D4
:1084C0005D005D005D005D005D005D005D005D00C4
:1084D0005D005D005D005D005D005D005D005D00B4
:1084E0005D005D005D005D005D005D0060005F009F
:1084F0005F005F005F005F005F005F005F005F0084
:108500005F005F005F005F005F005F005F005F0073
:108510005F005F005F005F005F005F005F005F0063
:108520005F005F005F005F005F005F005F005F0053
:1087900061006100630063006300630063006300C5
:1087A00063006300630063006300630063006300B1
:1087B00063006300630063006300630063006300A1
:1087C0006300630063006300630063006300630091
:1087D0006300630063006300630063006300630081
:1087E0006300630063006300630063006300630071
:1087F0006300630063006300630063006300630061
:108800006300630063006300630063006300630050
:108810006300630063006300630063006300630040
:108820006300630063006300630063006300630030
:108830006300630063006300630063006300630020
:108840006300630063006300630063006300630010
:108850006300630063006300630063006300630000
:1088600063006300630063006300630063006300F0
:1088700063006300630063006300630063006300E0
:1088800063006300630063006300630063006300D0
:1088900063006300630063006300630063006300C0
:1088A00063006300630063006300630063006300B0
:1088B00063006300630063006300630063006300A0
:1088C0006300630063006300630063006300630090
:1088D0006300630063006300630063006300630080
:1088E0006300630063006300670066006600660063
:1088F0006600660066006600660066006600660048
:108900006600660066006600660066006600660037
:108910006600660066006600660066006600660027
:108920006600660066006600660066006600660017
:108930006600660066006600660066006600660007
:1089400066006600660066006600660066006600F7
:1089500066006600660066006600660066006600E7
:1089600066006600660066006600660066006600D7
:1089700066006600660066006600660066006600C7
:1089800066006600660066006600660066006600B7
:1089900066006600660066006600660066006600A7
:1089A0006600660066006600660066006600660097
:1089B0006600660066006600660066006600660087
:1089C0006600660066006600660066006600660077
:1089D0006600660066006600660066006600660067
:1089E0006600660066006600660066006600660057
:1089F0006600660066006600660066006600660047
:108A00006600660066006600660066006600660036
:108A10006600660066006600660066006600660026
:108A20006600660066006600660066006600660016
:108A30006600660066006600660066006900680001
:108A400068006800680068006800680068006800E6
:108A500068006800680068006800680068006800D6
:108A600068006800680068006800680068006800C6
:108A700068006800680068006800680068006800B6
:108CE0006B006B006D006D006D006D006D006D0020
:108CF0006D006D006D006D006D006D006D006D000C
:108D00006D006D006D006D006D006D006D006D00FB
:108D10006D006D006D006D006D006D006D006D00EB
:108D20006D006D006D006D006D006D006D006D00DB
:108D30006D006D006D006D006D006D006D006D00CB
:108D40006D006D006D006D006D006D006D006D00BB
:108D50006D006D006D006D006D006D006D006D00AB
:108D60006D006D006D006D006D006D006D006D009B
:108D70006D006D006D006D006D006D006D006D008B
:108D80006D006D006D006D006D006D006D006D007B
:108D90006D006D006D006D006D006D006D006D006B
:108DA0006D006D006D006D006D006D006D006D005B
:108DB0006D006D006D006D006D006D006D006D004B
:108DC0006D006D006D006D006D006D006D006D003B
:108DD0006D006D006D006D006D006D006D006D002B
:108DE0006D006D006D006D006D006D006D006D001B
:108DF0006D006D006D006D006D006D006D006D000B
:108E00006D006D006D006D006D006D006D006D00FA
:108E10006D006D006D006D006D006D006D006D00EA
:108E20006D006D006D006D006D006D006D006D00DA
:108E30006D006D006D006D007000700070007000BE
:108E400070007000700070007000700070007000A2
:108E50007000700070007000700070007000700092
:108E60007000700070007000700070007000700082
:108E70007000700070007000700070007000700072
:108E80007000700070007000700070007000700062
:108E90007000700070007000700070007000700052
:108EA0007000700070007000700070007000700042
:108EB0007000700070007000700070007000700032
:108EC0007000700070007000700070007000700022
:108ED0007000700070007000700070007000700012
:108EE0007000700070007000700070007000700002
:108EF00070007000700070007000700070007000F2
:108F000070007000700070007000700070007000E1
:108F100070007000700070007000700070007000D1
:108F200070007000700070007000700070007000C1
:108F300070007000700070007000700070007000B1
:108F400070007000700070007000700070007000A1
:108F50007000700070007000700070007000700091
:108F60007000700070007000700070007000700081
:108F70007000700070007000700070007000700071
:108F8000700070007000700070007000720072005D
:108F90007200720072007200720072007200720041
:108FA0007200720072007200720072007200720031
:108FB0007200720072007200720072007200720021
:108FC0007200720072007200720072007200720011
:108FD0007200720072007200720072007200720001
:108FE00072007200720072007200720072007200F1
:108FF00072007200720072007200720072007200E1
:1090000072007200720072007200720072007200D0
:1090100072007200720072007200720072007200C0
:1090200072007200720072007200720072007200B0
:1090300072007200720072007200720072007200A0
:109040007200720072007200720072007200720090
:109050007200720072007200720072007200720080
:109060007200720072007200720072007200720070
:109070007200720072007200720072007200720060
:109080007200720072007200720072007200720050
:109090007200720072007200720072007200720040
:1090A0007200720072007200720072007200720030
:1090B0007200720072007200720072007200720020
:1090C0007200720072007200720072007200720010
:1090D0007200720072007200720072007200720000
:1090E00076007500750075007500750075007500D7
:1090F00075007500750075007500750075007500C8
:1091000075007500750075007500750075007500B7
:1091100075007500750075007500750075007500A7
:109120007500750075007500750075007500750097
:109130007500750075007500750075007500750087
:109140007500750075007500750075007500750077
:109150007500750075007500750075007500750067
:109160007500750075007500750075007500750057
:109170007500750075007500750075007500750047
:109180007500750075007500750075007500750037
:109190007500750075007500750075007500750027
:1091A0007500750075007500750075007500750017
:1091B0007500750075007500750075007500750007
:1091C00075007500750075007500750075007500F7
:1091D00075007500750075007500750075007500E7
:1091E00075007500750075007500750075007500D7
:1091F00075007500750075007500750075007500C7
:1092000075007500750075007500750075007500B6
:1092100075007500750075007500750075007500A6
:109220007500750075007500750075007500750096
:109230007500750078007800780078007800780074
:10924000780078007800780078007800780078005E
:10925000780078007800780078007800780078004E
:10926000780078007800780078007800780078003E
:10927000780078007800780078007800780078002E
:10928000780078007800780078007800780078001E
:10929000780078007800780078007800780078000E
:1092A00078007800780078007800780078007800FE
:1092B00078007800780078007800780078007800EE
:1092C00078007800780078007800780078007800DE
:1092D00078007800780078007800780078007800CE
:1092E00078007800780078007800780078007800BE
:1092F00078007800780078007800780078007800AE
:10930000780078007800780078007800780078009D
:10931000780078007800780078007800780078008D
:10932000780078007800780078007800780078007D
:10933000780078007800780078007800780078006D
:10934000780078007800780078007800780078005D
:10935000780078007800780078007800780078004D
:10936000780078007800780078007800780078003D
:10937000780078007800780078007800780078002D
:1093800078007800780078007A007A007A007A0015
:109390007A007A007A007A007A007A007A007A00FD
:1093A0007A007A007A007A007A007A007A007A00ED
:1093B0007A007A007A007A007A007A007A007A00DD
:1093C0007A007A007A007A007A007A007A007A00CD
:1093D0007A007A007A007A007A007A007A007A00BD
:1093E0007A007A007A007A007A007A007A007A00AD
:1093F0007A007A007A007A007A007A007A007A009D
:109400007A007A007A007A007A007A007A007A008C
:109410007A007A007A007A007A007A007A007A007C
:109420007A007A007A007A007A007A007A007A006C
:109430007A007A007A007A007A007A007A007A005C
:109440007A007A007A007A007A007A007A007A004C
:109450007A007A007A007A007A007A007A007A003C
:109460007A007A007A007A007A007A007A007A002C
:109470007A007A007A007A007A007A007A007A001C
:109480007A007A007A007A007A007A007A007A000C
:109490007A007A007A007A007A007A007A007A00FC
:1094A0007A007A007A007A007A007A007A007A00EC
:1094B0007A007A007A007A007A007A007A007A00DC
:1094C0007A007A007A007A007A007A007A007A00CC
:1094D0007A007A007A007A007A007A007D007D00B6
:1094E0007D007D007D007D007D007D007D007D0094
:1094F0007D007D007D007D007D007D007D007D0084
:109500007D007D007D007D007D007D007D007D0073
:109510007D007D007D007D007D007D007D007D0063
:109520007D007D007D007D007D007D007D007D0053
:109530007D007D007D007D007D007D007D007D0043
:109540007D007D007D007D007D007D007D007D0033
:109550007D007D007D007D007D007D007D007D0023
:109560007D007D007D007D007D007D007D007D0013
:109570007D007D007D007D007D007D007D007D0003
:109580007D007D007D007D007D007D007D007D00F3
:109590007D007D007D007D007D007D007D007D00E3
:1095A0007D007D007D007D007D007D007D007D00D3
:1095B0007D007D007D007D007D007D007D007D00C3
:1095C0007D007D007D007D007D007D007D007D00B3
:1095D0007D007D007D007D007D007D007D007D00A3
:1095E0007D007D007D007D007D007D007D007D0093
:1095F0007D007D007D007D007D007D007D007D0083
:109600007D007D007D007D007D007D007D007D0072
:109610007D007D007D007D007D007D007D007D0062
:109620007D007D007D007D007D007D007D007D0052
:109630008100800080008000800080008000800029
:10964000800080008000800080008000800080001A
:10965000800080008000800080008000800080000A
:1096600080008000800080008000800080008000FA
:1096700080008000800080008000800080008000EA
:1096800080008000800080008000800080008000DA
:1096900080008000800080008000800080008000CA
:1096A00080008000800080008000800080008000BA
:1096B00080008000800080008000800080008000AA
:1096C000800080008000800080008000800080009A
:1096D000800080008000800080008000800080008A
:1096E000800080008000800080008000800080007A
:1096F000800080008000800080008000800080006A
:109700008000800080008000800080008000800059
:109710008000800080008000800080008000800049
:109720008000800080008000800080008000800039
:109730008000800080008000800080008000800029
:109740008000800080008000800080008000800019
:109750008000800080008000800080008000800009
:1097600080008000800080008000800080008000F9
:1097700080008000800080008000800080008000E9
:1097800080008000830083008300830083008300C7
:1097900083008300830083008300830083008300B1
:1097A00083008300830083008300830083008300A1
:1097B0008300830083008300830083008300830091
:1097C0008300830083008300830083008300830081
:1097D0008300830083008300830083008300830071
:1097E0008300830083008300830083008300830061
:1097F0008300830083008300830083008300830051
:109800008300830083008300830083008300830040
:109810008300830083008300830083008300830030
:109820008300830083008300830083008300830020
:109830008300830083008300830083008300830010
:109840008300830083008300830083008300830000
:1098500083008300830083008300830083008300F0
:1098600083008300830083008300830083008300E0
:1098700083008300830083008300830083008300D0
:1098800083008300830083008300830083008300C0
:1098900083008300830083008300830083008300B0
:1098A00083008300830083008300830083008300A0
:1098B0008300830083008300830083008300830090
:1098C0008300830083008300830083008300830080
:1098D0008300830083008300870087008700870060
:1098E0008700870087008700870087008700870040
:1098F0008700870087008700870087008700870030
:10990000870087008700870087008700870087001F
:10991000870087008700870087008700870087000F
:1099200087008700870087008700870087008700FF
:1099300087008700870087008700870087008700EF
:1099400087008700870087008700870087008700DF
:1099500087008700870087008700870087008700CF
:1099600087008700870087008700870087008700BF
:1099700087008700870087008700870087008700AF
:10998000870087008700870087008700870087009F
:10999000870087008700870087008700870087008F
:1099A000870087008700870087008700870087007F
:1099B000870087008700870087008700870087006F
:1099C000870087008700870087008700870087005F
:1099D000870087008700870087008700870087004F
:1099E000870087008700870087008700870087003F
:1099F000870087008700870087008700870087002F
:109A0000870087008700870087008700870087001E
:109A1000870087008700870087008700870087000E
:109A20008700870087008700870087008A008A00F8
:109A30008A008A008A008A008A008A008A008A00D6
:109A40008A008A008A008A008A008A008A008A00C6
:109A50008A008A008A008A008A008A008A008A00B6
:109A60008A008A008A008A008A008A008A008A00A6
:109A70008A008A008A008A008A008A008A008A0096
:109A80008A008A008A008A008A008A008A008A0086
:109A90008A008A008A008A008A008A008A008A0076
:109AA0008A008A008A008A008A008A008A008A0066
:109AB0008A008A008A008A008A008A008A008A0056
:109AC0008A008A008A008A008A008A008A008A0046
:109AD0008A008A008A008A008A008A008A008A0036
:109AE0008A008A008A008A008A008A008A008A0026
:109AF0008A008A008A008A008A008A008A008A0016
:109B00008A008A008A008A008A008A008A008A0005
:109B10008A008A008A008A008A008A008A008A00F5
:109B20008A008A008A008A008A008A008A008A00E5
:109B30008A008A008A008A008A008A008A008A00D5
:109B40008A008A008A008A008A008A008A008A00C5
:109B50008A008A008A008A008A008A008A008A00B5
:109B60008A008A008A008A008A008A008A008A00A5
:109B70008A008A008A008A008A008A008A008A0095
:109B80008E008D008D008D008D008D008D008D006C
:109B90008D008D008D008D008D008D008D008D005D
:109BA0008D008D008D008D008D008D008D008D004D
:109BB0008D008D008D008D008D008D008D008D003D
:109BC0008D008D008D008D008D008D008D008D002D
:109BD0008D008D008D008D008D008D008D008D001D
:109BE0008D008D008D008D008D008D008D008D000D
:109BF0008D008D008D008D008D008D008D008D00FD
:109C00008D008D008D008D008D008D008D008D00EC
:109C10008D008D008D008D008D008D008D008D00DC
:109C20008D008D008D008D008D008D008D008D00CC
:109C30008D008D008D008D008D008D008D008D00BC
:109C40008D008D008D008D008D008D008D008D00AC
:109C50008D008D008D008D008D008D008D008D009C
:109C60008D008D008D008D008D008D008D008D008C
:109C70008D008D008D008D008D008D008D008D007C
:109C80008D008D008D008D008D008D008D008D006C
:109C90008D008D008D008D008D008D008D008D005C
:109CA0008D008D008D008D008D008D008D008D004C
:109CB0008D008D008D008D008D008D008D008D003C
:109CC0008D008D008D008D008D008D008D008D002C
:109CD0008D008D0092009100910091009100910003
:109CE00091009100910091009100910091009100EC
:109CF00091009100910091009100910091009100DC
:109D000091009100910091009100910091009100CB
:109D100091009100910091009100910091009100BB
:109D200091009100910091009100910091009100AB
:109D3000910091009100910091009100910091009B
:109D4000910091009100910091009100910091008B
:109D5000910091009100910091009100910091007B
:109D6000910091009100910091009100910091006B
:109D7000910091009100910091009100910091005B
:109D8000910091009100910091009100910091004B
:109D9000910091009100910091009100910091003B
:109DA000910091009100910091009100910091002B
:109DB000910091009100910091009100910091001B
:109DC000910091009100910091009100910091000B
:109DD00091009100910091009100910091009100FB
:109DE00091009100910091009100910091009100EB
:109DF00091009100910091009100910091009100DB
:109E000091009100910091009100910091009100CA
:109E100091009100910091009100910091009100BA
:109E2000910091009100910094009400940094009E
:109E30009400940094009400940094009400940082
:109E40009400940094009400940094009400940072
:109E50009400940094009400940094009400940062
:109E60009400940094009400940094009400940052
:109E70009400940094009400940094009400940042
:109E80009400940094009400940094009400940032
:109E90009400940094009400940094009400940022
:109EA0009400940094009400940094009400940012
:109EB0009400940094009400940094009400940002
:109EC00094009400940094009400940094009400F2
:109ED00094009400940094009400940094009400E2
:109EE00094009400940094009400940094009400D2
:109EF00094009400940094009400940094009400C2
:109F000094009400940094009400940094009400B1
:109F100094009400940094009400940094009400A1
:109F20009400940094009400940094009400940091
:109F30009400940094009400940094009400940081
:109F40009400940094009400940094009400940071
:109F50009400940094009400940094009400940061
:109F60009400940094009400940094009400940051
:109F70009400940094009400940094009800980039
:109F80009800980098009800980098009800980011
:109F90009800980098009800980098009800980001
:109FA00098009800980098009800980098009800F1
:109FB00098009800980098009800980098009800E1
:109FC00098009800980098009800980098009800D1
:109FD00098009800980098009800980098009800C1
:109FE00098009800980098009800980098009800B1
:109FF00098009800980098009800980098009800A1
:10A000009800980098009800980098009800980090
:10A010009800980098009800980098009800980080
:10A020009800980098009800980098009800980070
:10A030009800980098009800980098009800980060
:10A040009800980098009800980098009800980050
:10A050009800980098009800980098009800980040
:10A060009800980098009800980098009800980030
:10A070009800980098009800980098009800980020
:10A080009800980098009800980098009800980010
:10A090009800980098009800980098009800980000
:10A0A00098009800980098009800980098009800F0
:10A0B00098009800980098009800980098009800E0
:10A0C00098009800980098009800980098009800D0
:10A0D0009D009C009C009C009C009C009C009C009F
:10A0E0009C009C009C009C009C009C009C009C0090
:10A0F0009C009C009C009C009C009C009C009C0080
:10A100009C009C009C009C009C009C009C009C006F
:10A110009C009C009C009C009C009C009C009C005F
:10A120009C009C009C009C009C009C009C009C004F
:10A130009C009C009C009C009C009C009C009C003F
:10A140009C009C009C009C009C009C009C009C002F
:10A150009C009C009C009C009C009C009C009C001F
:10A160009C009C009C009C009C009C009C009C000F
:10A170009C009C009C009C009C009C009C009C00FF
:10A180009C009C009C009C009C009C009C009C00EF
:10A190009C009C009C009C009C009C009C009C00DF
:10A1A0009C009C009C009C009C009C009C009C00CF
:10A1B0009C009C009C009C009C009C009C009C00BF
:10A1C0009C009C009C009C009C009C009C009C00AF
:10A1D0009C009C009C009C009C009C009C009C009F
:10A1E0009C009C009C009C009C009C009C009C008F
:10A1F0009C009C009C009C009C009C009C009C007F
:10A200009C009C009C009C009C009C009C009C006E
:10A210009C009C009C009C009C009C009C009C005E
